:020000040000FA
:020000000528D1
:040002000034003492
:080008001C288316031380304D
:100010009F008316031305148312031341309F00BE
:10002000831203139E01831603139E018316031389
:100030008801831203135A28831203130900F9302D
:10004000F0000000F00B21280800F1001F20F10B48
:100050002628080008151F2008111F200800F50099
:10006000F0398800F41888142A201F20F50E75082E
:10007000F0398800F41888142A201F200800643002
:100080002520F030F400303088002A20053025206B
:100090002A201F202A2008122A2028302F2008304A
:1000A0002F2001302F2006302F2080302F200C30C1
:1000B0002F200800252025203F20831203131F1521
:1000C0001F196028831603131E0883120313A5004B
:0800D000F41425082F206B2811
:02400E00313748
:00000001FF
