:020000040000FA
:020000000528D1
:040002000034003492
:080008001428831603130614EB
:10001000831203138B170B168316031388018312A5
:1000200003134130A5005A28831203130B128B10BF
:10003000A50A831203130B16831203130900F93068
:10004000F0000000F00B21280800F1001F20F10B48
:100050002628080008151F2008111F200800F50099
:10006000F0398800F41888142A201F20F50E75082E
:10007000F0398800F41888142A201F200800643002
:100080002520F030F400303088002A20053025206B
:100090002A201F202A2008122A2028302F2008304A
:1000A0002F2001302F2006302F2080302F200C30C1
:1000B0002F200800252025203F202508F4142F207C
:0200C0005D28B9
:02400E00313748
:00000001FF
